{
  "abi": [
    {
      "inputs": [
        {
          "internalType": "address",
          "name": "admin",
          "type": "address"
        }
      ],
      "stateMutability": "nonpayable",
      "type": "constructor"
    },
    {
      "anonymous": false,
      "inputs": [
        {
          "indexed": true,
          "internalType": "address",
          "name": "owner",
          "type": "address"
        },
        {
          "indexed": true,
          "internalType": "address",
          "name": "spender",
          "type": "address"
        },
        {
          "indexed": false,
          "internalType": "uint256",
          "name": "value",
          "type": "uint256"
        }
      ],
      "name": "Approval",
      "type": "event"
    },
    {
      "anonymous": false,
      "inputs": [
        {
          "indexed": true,
          "internalType": "address",
          "name": "facilitatorAddress",
          "type": "address"
        },
        {
          "indexed": true,
          "internalType": "bytes32",
          "name": "label",
          "type": "bytes32"
        },
        {
          "indexed": false,
          "internalType": "uint256",
          "name": "bucketCapacity",
          "type": "uint256"
        }
      ],
      "name": "FacilitatorAdded",
      "type": "event"
    },
    {
      "anonymous": false,
      "inputs": [
        {
          "indexed": true,
          "internalType": "address",
          "name": "facilitatorAddress",
          "type": "address"
        },
        {
          "indexed": false,
          "internalType": "uint256",
          "name": "oldCapacity",
          "type": "uint256"
        },
        {
          "indexed": false,
          "internalType": "uint256",
          "name": "newCapacity",
          "type": "uint256"
        }
      ],
      "name": "FacilitatorBucketCapacityUpdated",
      "type": "event"
    },
    {
      "anonymous": false,
      "inputs": [
        {
          "indexed": true,
          "internalType": "address",
          "name": "facilitatorAddress",
          "type": "address"
        },
        {
          "indexed": false,
          "internalType": "uint256",
          "name": "oldLevel",
          "type": "uint256"
        },
        {
          "indexed": false,
          "internalType": "uint256",
          "name": "newLevel",
          "type": "uint256"
        }
      ],
      "name": "FacilitatorBucketLevelUpdated",
      "type": "event"
    },
    {
      "anonymous": false,
      "inputs": [
        {
          "indexed": true,
          "internalType": "address",
          "name": "facilitatorAddress",
          "type": "address"
        }
      ],
      "name": "FacilitatorRemoved",
      "type": "event"
    },
    {
      "anonymous": false,
      "inputs": [
        {
          "indexed": true,
          "internalType": "bytes32",
          "name": "role",
          "type": "bytes32"
        },
        {
          "indexed": true,
          "internalType": "bytes32",
          "name": "previousAdminRole",
          "type": "bytes32"
        },
        {
          "indexed": true,
          "internalType": "bytes32",
          "name": "newAdminRole",
          "type": "bytes32"
        }
      ],
      "name": "RoleAdminChanged",
      "type": "event"
    },
    {
      "anonymous": false,
      "inputs": [
        {
          "indexed": true,
          "internalType": "bytes32",
          "name": "role",
          "type": "bytes32"
        },
        {
          "indexed": true,
          "internalType": "address",
          "name": "account",
          "type": "address"
        },
        {
          "indexed": true,
          "internalType": "address",
          "name": "sender",
          "type": "address"
        }
      ],
      "name": "RoleGranted",
      "type": "event"
    },
    {
      "anonymous": false,
      "inputs": [
        {
          "indexed": true,
          "internalType": "bytes32",
          "name": "role",
          "type": "bytes32"
        },
        {
          "indexed": true,
          "internalType": "address",
          "name": "account",
          "type": "address"
        },
        {
          "indexed": true,
          "internalType": "address",
          "name": "sender",
          "type": "address"
        }
      ],
      "name": "RoleRevoked",
      "type": "event"
    },
    {
      "anonymous": false,
      "inputs": [
        {
          "indexed": true,
          "internalType": "address",
          "name": "from",
          "type": "address"
        },
        {
          "indexed": true,
          "internalType": "address",
          "name": "to",
          "type": "address"
        },
        {
          "indexed": false,
          "internalType": "uint256",
          "name": "value",
          "type": "uint256"
        }
      ],
      "name": "Transfer",
      "type": "event"
    },
    {
      "inputs": [],
      "name": "BUCKET_MANAGER_ROLE",
      "outputs": [
        {
          "internalType": "bytes32",
          "name": "",
          "type": "bytes32"
        }
      ],
      "stateMutability": "view",
      "type": "function"
    },
    {
      "inputs": [],
      "name": "DEFAULT_ADMIN_ROLE",
      "outputs": [
        {
          "internalType": "bytes32",
          "name": "",
          "type": "bytes32"
        }
      ],
      "stateMutability": "view",
      "type": "function"
    },
    {
      "inputs": [],
      "name": "DOMAIN_SEPARATOR",
      "outputs": [
        {
          "internalType": "bytes32",
          "name": "",
          "type": "bytes32"
        }
      ],
      "stateMutability": "view",
      "type": "function"
    },
    {
      "inputs": [],
      "name": "FACILITATOR_MANAGER_ROLE",
      "outputs": [
        {
          "internalType": "bytes32",
          "name": "",
          "type": "bytes32"
        }
      ],
      "stateMutability": "view",
      "type": "function"
    },
    {
      "inputs": [],
      "name": "PERMIT_TYPEHASH",
      "outputs": [
        {
          "internalType": "bytes32",
          "name": "",
          "type": "bytes32"
        }
      ],
      "stateMutability": "view",
      "type": "function"
    },
    {
      "inputs": [
        {
          "internalType": "address",
          "name": "facilitatorAddress",
          "type": "address"
        },
        {
          "internalType": "string",
          "name": "facilitatorLabel",
          "type": "string"
        },
        {
          "internalType": "uint128",
          "name": "bucketCapacity",
          "type": "uint128"
        }
      ],
      "name": "addFacilitator",
      "outputs": [],
      "stateMutability": "nonpayable",
      "type": "function"
    },
    {
      "inputs": [
        {
          "internalType": "address",
          "name": "",
          "type": "address"
        },
        {
          "internalType": "address",
          "name": "",
          "type": "address"
        }
      ],
      "name": "allowance",
      "outputs": [
        {
          "internalType": "uint256",
          "name": "",
          "type": "uint256"
        }
      ],
      "stateMutability": "view",
      "type": "function"
    },
    {
      "inputs": [
        {
          "internalType": "address",
          "name": "spender",
          "type": "address"
        },
        {
          "internalType": "uint256",
          "name": "amount",
          "type": "uint256"
        }
      ],
      "name": "approve",
      "outputs": [
        {
          "internalType": "bool",
          "name": "",
          "type": "bool"
        }
      ],
      "stateMutability": "nonpayable",
      "type": "function"
    },
    {
      "inputs": [
        {
          "internalType": "address",
          "name": "",
          "type": "address"
        }
      ],
      "name": "balanceOf",
      "outputs": [
        {
          "internalType": "uint256",
          "name": "",
          "type": "uint256"
        }
      ],
      "stateMutability": "view",
      "type": "function"
    },
    {
      "inputs": [
        {
          "internalType": "uint256",
          "name": "amount",
          "type": "uint256"
        }
      ],
      "name": "burn",
      "outputs": [],
      "stateMutability": "nonpayable",
      "type": "function"
    },
    {
      "inputs": [],
      "name": "decimals",
      "outputs": [
        {
          "internalType": "uint8",
          "name": "",
          "type": "uint8"
        }
      ],
      "stateMutability": "view",
      "type": "function"
    },
    {
      "inputs": [
        {
          "internalType": "address",
          "name": "facilitator",
          "type": "address"
        }
      ],
      "name": "getFacilitator",
      "outputs": [
        {
          "components": [
            {
              "internalType": "uint128",
              "name": "bucketCapacity",
              "type": "uint128"
            },
            {
              "internalType": "uint128",
              "name": "bucketLevel",
              "type": "uint128"
            },
            {
              "internalType": "string",
              "name": "label",
              "type": "string"
            }
          ],
          "internalType": "struct IGhoToken.Facilitator",
          "name": "",
          "type": "tuple"
        }
      ],
      "stateMutability": "view",
      "type": "function"
    },
    {
      "inputs": [
        {
          "internalType": "address",
          "name": "facilitator",
          "type": "address"
        }
      ],
      "name": "getFacilitatorBucket",
      "outputs": [
        {
          "internalType": "uint256",
          "name": "",
          "type": "uint256"
        },
        {
          "internalType": "uint256",
          "name": "",
          "type": "uint256"
        }
      ],
      "stateMutability": "view",
      "type": "function"
    },
    {
      "inputs": [],
      "name": "getFacilitatorsList",
      "outputs": [
        {
          "internalType": "address[]",
          "name": "",
          "type": "address[]"
        }
      ],
      "stateMutability": "view",
      "type": "function"
    },
    {
      "inputs": [
        {
          "internalType": "bytes32",
          "name": "role",
          "type": "bytes32"
        }
      ],
      "name": "getRoleAdmin",
      "outputs": [
        {
          "internalType": "bytes32",
          "name": "",
          "type": "bytes32"
        }
      ],
      "stateMutability": "view",
      "type": "function"
    },
    {
      "inputs": [
        {
          "internalType": "bytes32",
          "name": "role",
          "type": "bytes32"
        },
        {
          "internalType": "address",
          "name": "account",
          "type": "address"
        }
      ],
      "name": "grantRole",
      "outputs": [],
      "stateMutability": "nonpayable",
      "type": "function"
    },
    {
      "inputs": [
        {
          "internalType": "bytes32",
          "name": "role",
          "type": "bytes32"
        },
        {
          "internalType": "address",
          "name": "account",
          "type": "address"
        }
      ],
      "name": "hasRole",
      "outputs": [
        {
          "internalType": "bool",
          "name": "",
          "type": "bool"
        }
      ],
      "stateMutability": "view",
      "type": "function"
    },
    {
      "inputs": [
        {
          "internalType": "address",
          "name": "account",
          "type": "address"
        },
        {
          "internalType": "uint256",
          "name": "amount",
          "type": "uint256"
        }
      ],
      "name": "mint",
      "outputs": [],
      "stateMutability": "nonpayable",
      "type": "function"
    },
    {
      "inputs": [],
      "name": "name",
      "outputs": [
        {
          "internalType": "string",
          "name": "",
          "type": "string"
        }
      ],
      "stateMutability": "view",
      "type": "function"
    },
    {
      "inputs": [
        {
          "internalType": "address",
          "name": "",
          "type": "address"
        }
      ],
      "name": "nonces",
      "outputs": [
        {
          "internalType": "uint256",
          "name": "",
          "type": "uint256"
        }
      ],
      "stateMutability": "view",
      "type": "function"
    },
    {
      "inputs": [
        {
          "internalType": "address",
          "name": "owner",
          "type": "address"
        },
        {
          "internalType": "address",
          "name": "spender",
          "type": "address"
        },
        {
          "internalType": "uint256",
          "name": "value",
          "type": "uint256"
        },
        {
          "internalType": "uint256",
          "name": "deadline",
          "type": "uint256"
        },
        {
          "internalType": "uint8",
          "name": "v",
          "type": "uint8"
        },
        {
          "internalType": "bytes32",
          "name": "r",
          "type": "bytes32"
        },
        {
          "internalType": "bytes32",
          "name": "s",
          "type": "bytes32"
        }
      ],
      "name": "permit",
      "outputs": [],
      "stateMutability": "nonpayable",
      "type": "function"
    },
    {
      "inputs": [
        {
          "internalType": "address",
          "name": "facilitatorAddress",
          "type": "address"
        }
      ],
      "name": "removeFacilitator",
      "outputs": [],
      "stateMutability": "nonpayable",
      "type": "function"
    },
    {
      "inputs": [
        {
          "internalType": "bytes32",
          "name": "role",
          "type": "bytes32"
        },
        {
          "internalType": "address",
          "name": "account",
          "type": "address"
        }
      ],
      "name": "renounceRole",
      "outputs": [],
      "stateMutability": "nonpayable",
      "type": "function"
    },
    {
      "inputs": [
        {
          "internalType": "bytes32",
          "name": "role",
          "type": "bytes32"
        },
        {
          "internalType": "address",
          "name": "account",
          "type": "address"
        }
      ],
      "name": "revokeRole",
      "outputs": [],
      "stateMutability": "nonpayable",
      "type": "function"
    },
    {
      "inputs": [
        {
          "internalType": "address",
          "name": "facilitator",
          "type": "address"
        },
        {
          "internalType": "uint128",
          "name": "newCapacity",
          "type": "uint128"
        }
      ],
      "name": "setFacilitatorBucketCapacity",
      "outputs": [],
      "stateMutability": "nonpayable",
      "type": "function"
    },
    {
      "inputs": [
        {
          "internalType": "bytes4",
          "name": "interfaceId",
          "type": "bytes4"
        }
      ],
      "name": "supportsInterface",
      "outputs": [
        {
          "internalType": "bool",
          "name": "",
          "type": "bool"
        }
      ],
      "stateMutability": "view",
      "type": "function"
    },
    {
      "inputs": [],
      "name": "symbol",
      "outputs": [
        {
          "internalType": "string",
          "name": "",
          "type": "string"
        }
      ],
      "stateMutability": "view",
      "type": "function"
    },
    {
      "inputs": [],
      "name": "totalSupply",
      "outputs": [
        {
          "internalType": "uint256",
          "name": "",
          "type": "uint256"
        }
      ],
      "stateMutability": "view",
      "type": "function"
    },
    {
      "inputs": [
        {
          "internalType": "address",
          "name": "to",
          "type": "address"
        },
        {
          "internalType": "uint256",
          "name": "amount",
          "type": "uint256"
        }
      ],
      "name": "transfer",
      "outputs": [
        {
          "internalType": "bool",
          "name": "",
          "type": "bool"
        }
      ],
      "stateMutability": "nonpayable",
      "type": "function"
    },
    {
      "inputs": [
        {
          "internalType": "address",
          "name": "from",
          "type": "address"
        },
        {
          "internalType": "address",
          "name": "to",
          "type": "address"
        },
        {
          "internalType": "uint256",
          "name": "amount",
          "type": "uint256"
        }
      ],
      "name": "transferFrom",
      "outputs": [
        {
          "internalType": "bool",
          "name": "",
          "type": "bool"
        }
      ],
      "stateMutability": "nonpayable",
      "type": "function"
    }
  ],
  "bytecode": {
    "object": "0x60e06040523480156200001157600080fd5b506040516200243638038062002436833981016040819052620000349162000216565b6040518060400160405280600981526020016823b437902a37b5b2b760b91b8152506040518060400160405280600381526020016247484f60e81b81525060128260009081620000859190620002ed565b506001620000948382620002ed565b5060ff81166080524660a052620000aa620000c6565b60c05250620000bf9150600090508262000162565b5062000437565b60007f8b73c3c69bb8fe3d512ecc4cf759cc79239f7b179b0ffacaa9a75d522b39400f6000604051620000fa9190620003b9565b6040805191829003822060208301939093528101919091527fc89efdaa54c0f20c7adf612882df0950f5a951637e0307cdcb4c672f298b8bc660608201524660808201523060a082015260c00160405160208183030381529060405280519060200120905090565b6200016e828262000172565b5050565b60008281526006602090815260408083206001600160a01b038516845290915290205460ff166200016e5760008281526006602090815260408083206001600160a01b03851684529091529020805460ff19166001179055620001d23390565b6001600160a01b0316816001600160a01b0316837f2f8788117e7eff1d82e926ec794901d17c78024a50270940304540a733656f0d60405160405180910390a45050565b6000602082840312156200022957600080fd5b81516001600160a01b03811681146200024157600080fd5b9392505050565b634e487b7160e01b600052604160045260246000fd5b600181811c908216806200027357607f821691505b6020821081036200029457634e487b7160e01b600052602260045260246000fd5b50919050565b601f821115620002e857600081815260208120601f850160051c81016020861015620002c35750805b601f850160051c820191505b81811015620002e457828155600101620002cf565b5050505b505050565b81516001600160401b0381111562000309576200030962000248565b62000321816200031a84546200025e565b846200029a565b602080601f831160018114620003595760008415620003405750858301515b600019600386901b1c1916600185901b178555620002e4565b600085815260208120601f198616915b828110156200038a5788860151825594840194600190910190840162000369565b5085821015620003a95787850151600019600388901b60f8161c191681555b5050505050600190811b01905550565b6000808354620003c9816200025e565b60018281168015620003e45760018114620003fa576200042b565b60ff19841687528215158302870194506200042b565b8760005260208060002060005b85811015620004225781548a82015290840190820162000407565b50505082870194505b50929695505050505050565b60805160a05160c051611fcf62000467600039600061078801526000610758015260006102d20152611fcf6000f3fe608060405234801561001057600080fd5b50600436106101da5760003560e01c8063550d996411610104578063a217fddf116100a2578063d46ec0ed11610071578063d46ec0ed14610497578063d505accf146104b7578063d547741f146104ca578063dd62ed3e146104dd57600080fd5b8063a217fddf14610416578063a9059cbb1461041e578063aa02f94a14610431578063af93df571461048457600080fd5b80637fc24def116100de5780637fc24def146103d557806391d14854146103e857806395d89b41146103fb578063a11812ba1461040357600080fd5b8063550d99641461036e57806370a08231146103955780637ecebe00146103b557600080fd5b80632f2ff15d1161017c57806336568abe1161014b57806336568abe1461030e57806340c10f191461032157806342966c6814610334578063433bef441461034757600080fd5b80632f2ff15d1461029157806330adf81f146102a6578063313ce567146102cd5780633644e5151461030657600080fd5b806318160ddd116101b857806318160ddd1461022f5780631ec90f2e1461024657806323b872dd1461025b578063248a9ca31461026e57600080fd5b806301ffc9a7146101df57806306fdde0314610207578063095ea7b31461021c575b600080fd5b6101f26101ed3660046118fa565b610508565b60405190151581526020015b60405180910390f35b61020f61053f565b6040516101fe9190611980565b6101f261022a3660046119af565b6105cd565b61023860025481565b6040519081526020016101fe565b61024e610639565b6040516101fe91906119d9565b6101f2610269366004611a26565b61064a565b61023861027c366004611a62565b60009081526006602052604090206001015490565b6102a461029f366004611a7b565b61072a565b005b6102387f6e71edae12b1b97f4d1f60370fef10105fa2faae0126114a169c64845d6126c981565b6102f47f000000000000000000000000000000000000000000000000000000000000000081565b60405160ff90911681526020016101fe565b610238610754565b6102a461031c366004611a7b565b6107aa565b6102a461032f3660046119af565b61082d565b6102a4610342366004611a62565b61096f565b6102387f5e20732f79076148980e17b6ce9f22756f85058fe2765420ed48a504bef5a8bc81565b6102387fc7f115822aabac0cd6b9d21b08c0c63819451a58157aecad689d1b5674fad40881565b6102386103a3366004611aa7565b60036020526000908152604090205481565b6102386103c3366004611aa7565b60056020526000908152604090205481565b6102a46103e3366004611ad9565b610a4a565b6101f26103f6366004611a7b565b610bd3565b61020f610bfe565b6102a4610411366004611aa7565b610c0b565b610238600081565b6101f261042c3660046119af565b610d9a565b61046f61043f366004611aa7565b6001600160a01b03166000908152600760205260409020546001600160801b0380821692600160801b9092041690565b604080519283526020830191909152016101fe565b6102a4610492366004611b6d565b610e00565b6104aa6104a5366004611aa7565b610f11565b6040516101fe9190611b97565b6102a46104c5366004611bdb565b61100a565b6102a46104d8366004611a7b565b61125b565b6102386104eb366004611c4e565b600460209081526000928352604080842090915290825290205481565b60006001600160e01b03198216637965db0b60e01b148061053957506301ffc9a760e01b6001600160e01b03198316145b92915050565b6000805461054c90611c78565b80601f016020809104026020016040519081016040528092919081815260200182805461057890611c78565b80156105c55780601f1061059a576101008083540402835291602001916105c5565b820191906000526020600020905b8154815290600101906020018083116105a857829003601f168201915b505050505081565b3360008181526004602090815260408083206001600160a01b038716808552925280832085905551919290917f8c5be1e5ebec7d5bd14f71427d1e84f3dd0314c0f7b2291e5b200ac8c7c3b925906106289086815260200190565b60405180910390a350600192915050565b60606106456008611280565b905090565b6001600160a01b038316600090815260046020908152604080832033845290915281205460001981146106a6576106818382611cc8565b6001600160a01b03861660009081526004602090815260408083203384529091529020555b6001600160a01b038516600090815260036020526040812080548592906106ce908490611cc8565b90915550506001600160a01b0380851660008181526003602052604090819020805487019055519091871690600080516020611f7a833981519152906107179087815260200190565b60405180910390a3506001949350505050565b60008281526006602052604090206001015461074581611294565b61074f83836112a1565b505050565b60007f0000000000000000000000000000000000000000000000000000000000000000461461078557610645611327565b507f000000000000000000000000000000000000000000000000000000000000000090565b6001600160a01b038116331461081f5760405162461bcd60e51b815260206004820152602f60248201527f416363657373436f6e74726f6c3a2063616e206f6e6c792072656e6f756e636560448201526e103937b632b9903337b91039b2b63360891b60648201526084015b60405180910390fd5b61082982826113c1565b5050565b600081116108735760405162461bcd60e51b81526020600482015260136024820152721253959053125117d352539517d05353d55395606a1b6044820152606401610816565b33600090815260076020526040812080549091600160801b9091046001600160801b0316906108a28483611cdf565b83549091506001600160801b031681111561090b5760405162461bcd60e51b8152602060048201526024808201527f464143494c495441544f525f4255434b45545f43415041434954595f455843456044820152631151115160e21b6064820152608401610816565b82546001600160801b03808316600160801b02911617835561092d8585611428565b604080518381526020810183905233917facb6de9209e4f34974cb165eef5738f0cf0b4ea9819ef30d30f0f7d81272ab82910160405180910390a25050505050565b600081116109b55760405162461bcd60e51b81526020600482015260136024820152721253959053125117d095549397d05353d55395606a1b6044820152606401610816565b33600090815260076020526040812080549091600160801b9091046001600160801b0316906109e48483611cc8565b83546001600160801b03808316600160801b0291161784559050610a083385611482565b604080518381526020810183905233917facb6de9209e4f34974cb165eef5738f0cf0b4ea9819ef30d30f0f7d81272ab8291015b60405180910390a250505050565b7f5e20732f79076148980e17b6ce9f22756f85058fe2765420ed48a504bef5a8bc610a7481611294565b6001600160a01b0385166000908152600760205260409020600181018054610a9b90611c78565b159050610aea5760405162461bcd60e51b815260206004820152601a60248201527f464143494c495441544f525f414c52454144595f4558495354530000000000006044820152606401610816565b83610b275760405162461bcd60e51b815260206004820152600d60248201526c1253959053125117d310509153609a1b6044820152606401610816565b60018101610b36858783611d5b565b5080546001600160801b0319166001600160801b038416178155610b5b6008876114e4565b508484604051602001610b6f929190611e1c565b60408051601f198184030181529082905280516020918201206001600160801b0386168352916001600160a01b038916917fdabd62626ada7b13e299389e94d768b294e5e24285ed2ffa1e5cd447c99c54ad910160405180910390a3505050505050565b60009182526006602090815260408084206001600160a01b0393909316845291905290205460ff1690565b6001805461054c90611c78565b7f5e20732f79076148980e17b6ce9f22756f85058fe2765420ed48a504bef5a8bc610c3581611294565b6001600160a01b03821660009081526007602052604081206001018054610c5b90611c78565b905011610caa5760405162461bcd60e51b815260206004820152601a60248201527f464143494c495441544f525f444f45535f4e4f545f45584953540000000000006044820152606401610816565b6001600160a01b038216600090815260076020526040902054600160801b90046001600160801b031615610d2a5760405162461bcd60e51b815260206004820152602160248201527f464143494c495441544f525f4255434b45545f4c4556454c5f4e4f545f5a45526044820152604f60f81b6064820152608401610816565b6001600160a01b038216600090815260076020526040812081815590610d5360018301826118ac565b50610d6190506008836114f9565b506040516001600160a01b038316907fa8fe5b89f35f2ebd6f3f95a7ef215f4bd89179e10c101073ae76cffad14734cf90600090a25050565b33600090815260036020526040812080548391908390610dbb908490611cc8565b90915550506001600160a01b03831660008181526003602052604090819020805485019055513390600080516020611f7a833981519152906106289086815260200190565b7fc7f115822aabac0cd6b9d21b08c0c63819451a58157aecad689d1b5674fad408610e2a81611294565b6001600160a01b03831660009081526007602052604081206001018054610e5090611c78565b905011610e9f5760405162461bcd60e51b815260206004820152601a60248201527f464143494c495441544f525f444f45535f4e4f545f45584953540000000000006044820152606401610816565b6001600160a01b03831660008181526007602090815260409182902080546001600160801b031981166001600160801b03888116918217909355845192909116808352928201529092917fc795c0a4927c3b6645e4e49a5a519af936b3c1c0e4c323a3f7251063f3f4bb0e9101610a3c565b6040805160608082018352600080835260208084018290528385018390526001600160a01b038616825260078152908490208451928301855280546001600160801b038082168552600160801b9091041691830191909152600181018054939492939192840191610f8190611c78565b80601f0160208091040260200160405190810160405280929190818152602001828054610fad90611c78565b8015610ffa5780601f10610fcf57610100808354040283529160200191610ffa565b820191906000526020600020905b815481529060010190602001808311610fdd57829003601f168201915b5050505050815250509050919050565b4284101561105a5760405162461bcd60e51b815260206004820152601760248201527f5045524d49545f444541444c494e455f455850495245440000000000000000006044820152606401610816565b6000611064610754565b6001600160a01b0389811660008181526005602090815260409182902080546001810190915582517f6e71edae12b1b97f4d1f60370fef10105fa2faae0126114a169c64845d6126c98184015280840194909452938c166060840152608083018b905260a083019390935260c08083018a90528151808403909101815260e08301909152805192019190912061190160f01b6101008301526101028201929092526101228101919091526101420160408051601f198184030181528282528051602091820120600080855291840180845281905260ff88169284019290925260608301869052608083018590529092509060019060a0016020604051602081039080840390855afa15801561117d573d6000803e3d6000fd5b5050604051601f1901519150506001600160a01b038116158015906111b35750886001600160a01b0316816001600160a01b0316145b6111f05760405162461bcd60e51b815260206004820152600e60248201526d24a72b20a624a22fa9a4a3a722a960911b6044820152606401610816565b6001600160a01b0390811660009081526004602090815260408083208b8516808552908352928190208a905551898152919350918a16917f8c5be1e5ebec7d5bd14f71427d1e84f3dd0314c0f7b2291e5b200ac8c7c3b925910160405180910390a350505050505050565b60008281526006602052604090206001015461127681611294565b61074f83836113c1565b6060600061128d8361150e565b9392505050565b61129e813361156a565b50565b6112ab8282610bd3565b6108295760008281526006602090815260408083206001600160a01b03851684529091529020805460ff191660011790556112e33390565b6001600160a01b0316816001600160a01b0316837f2f8788117e7eff1d82e926ec794901d17c78024a50270940304540a733656f0d60405160405180910390a45050565b60007f8b73c3c69bb8fe3d512ecc4cf759cc79239f7b179b0ffacaa9a75d522b39400f60006040516113599190611e2c565b6040805191829003822060208301939093528101919091527fc89efdaa54c0f20c7adf612882df0950f5a951637e0307cdcb4c672f298b8bc660608201524660808201523060a082015260c00160405160208183030381529060405280519060200120905090565b6113cb8282610bd3565b156108295760008281526006602090815260408083206001600160a01b0385168085529252808320805460ff1916905551339285917ff6391f5c32d9c69d2a47ea670b442974b53935d1edc7fd64eb21e047a839171b9190a45050565b806002600082825461143a9190611cdf565b90915550506001600160a01b038216600081815260036020908152604080832080548601905551848152600080516020611f7a83398151915291015b60405180910390a35050565b6001600160a01b038216600090815260036020526040812080548392906114aa908490611cc8565b90915550506002805482900390556040518181526000906001600160a01b03841690600080516020611f7a83398151915290602001611476565b600061128d836001600160a01b0384166115ce565b600061128d836001600160a01b03841661161d565b60608160000180548060200260200160405190810160405280929190818152602001828054801561155e57602002820191906000526020600020905b81548152602001906001019080831161154a575b50505050509050919050565b6115748282610bd3565b6108295761158c816001600160a01b03166014611710565b611597836020611710565b6040516020016115a8929190611ea2565b60408051601f198184030181529082905262461bcd60e51b825261081691600401611980565b600081815260018301602052604081205461161557508154600181810184556000848152602080822090930184905584548482528286019093526040902091909155610539565b506000610539565b60008181526001830160205260408120548015611706576000611641600183611cc8565b855490915060009061165590600190611cc8565b90508181146116ba57600086600001828154811061167557611675611f17565b906000526020600020015490508087600001848154811061169857611698611f17565b6000918252602080832090910192909255918252600188019052604090208390555b85548690806116cb576116cb611f2d565b600190038181906000526020600020016000905590558560010160008681526020019081526020016000206000905560019350505050610539565b6000915050610539565b6060600061171f836002611f43565b61172a906002611cdf565b67ffffffffffffffff81111561174257611742611cf7565b6040519080825280601f01601f19166020018201604052801561176c576020820181803683370190505b509050600360fc1b8160008151811061178757611787611f17565b60200101906001600160f81b031916908160001a905350600f60fb1b816001815181106117b6576117b6611f17565b60200101906001600160f81b031916908160001a90535060006117da846002611f43565b6117e5906001611cdf565b90505b600181111561185d576f181899199a1a9b1b9c1cb0b131b232b360811b85600f166010811061181957611819611f17565b1a60f81b82828151811061182f5761182f611f17565b60200101906001600160f81b031916908160001a90535060049490941c9361185681611f62565b90506117e8565b50831561128d5760405162461bcd60e51b815260206004820181905260248201527f537472696e67733a20686578206c656e67746820696e73756666696369656e746044820152606401610816565b5080546118b890611c78565b6000825580601f106118c8575050565b601f01602090049060005260206000209081019061129e91905b808211156118f657600081556001016118e2565b5090565b60006020828403121561190c57600080fd5b81356001600160e01b03198116811461128d57600080fd5b60005b8381101561193f578181015183820152602001611927565b8381111561194e576000848401525b50505050565b6000815180845261196c816020860160208601611924565b601f01601f19169290920160200192915050565b60208152600061128d6020830184611954565b80356001600160a01b03811681146119aa57600080fd5b919050565b600080604083850312156119c257600080fd5b6119cb83611993565b946020939093013593505050565b6020808252825182820181905260009190848201906040850190845b81811015611a1a5783516001600160a01b0316835292840192918401916001016119f5565b50909695505050505050565b600080600060608486031215611a3b57600080fd5b611a4484611993565b9250611a5260208501611993565b9150604084013590509250925092565b600060208284031215611a7457600080fd5b5035919050565b60008060408385031215611a8e57600080fd5b82359150611a9e60208401611993565b90509250929050565b600060208284031215611ab957600080fd5b61128d82611993565b80356001600160801b03811681146119aa57600080fd5b60008060008060608587031215611aef57600080fd5b611af885611993565b9350602085013567ffffffffffffffff80821115611b1557600080fd5b818701915087601f830112611b2957600080fd5b813581811115611b3857600080fd5b886020828501011115611b4a57600080fd5b602083019550809450505050611b6260408601611ac2565b905092959194509250565b60008060408385031215611b8057600080fd5b611b8983611993565b9150611a9e60208401611ac2565b6020815260006001600160801b03808451166020840152806020850151166040840152506040830151606080840152611bd36080840182611954565b949350505050565b600080600080600080600060e0888a031215611bf657600080fd5b611bff88611993565b9650611c0d60208901611993565b95506040880135945060608801359350608088013560ff81168114611c3157600080fd5b9699959850939692959460a0840135945060c09093013592915050565b60008060408385031215611c6157600080fd5b611c6a83611993565b9150611a9e60208401611993565b600181811c90821680611c8c57607f821691505b602082108103611cac57634e487b7160e01b600052602260045260246000fd5b50919050565b634e487b7160e01b600052601160045260246000fd5b600082821015611cda57611cda611cb2565b500390565b60008219821115611cf257611cf2611cb2565b500190565b634e487b7160e01b600052604160045260246000fd5b601f82111561074f57600081815260208120601f850160051c81016020861015611d345750805b601f850160051c820191505b81811015611d5357828155600101611d40565b505050505050565b67ffffffffffffffff831115611d7357611d73611cf7565b611d8783611d818354611c78565b83611d0d565b6000601f841160018114611dbb5760008515611da35750838201355b600019600387901b1c1916600186901b178355611e15565b600083815260209020601f19861690835b82811015611dec5786850135825560209485019460019092019101611dcc565b5086821015611e095760001960f88860031b161c19848701351681555b505060018560011b0183555b5050505050565b8183823760009101908152919050565b6000808354611e3a81611c78565b60018281168015611e525760018114611e6757611e96565b60ff1984168752821515830287019450611e96565b8760005260208060002060005b85811015611e8d5781548a820152908401908201611e74565b50505082870194505b50929695505050505050565b7f416363657373436f6e74726f6c3a206163636f756e7420000000000000000000815260008351611eda816017850160208801611924565b7001034b99036b4b9b9b4b733903937b6329607d1b6017918401918201528351611f0b816028840160208801611924565b01602801949350505050565b634e487b7160e01b600052603260045260246000fd5b634e487b7160e01b600052603160045260246000fd5b6000816000190483118215151615611f5d57611f5d611cb2565b500290565b600081611f7157611f71611cb2565b50600019019056feddf252ad1be2c89b69c2b068fc378daa952ba7f163c4a11628f55a4df523b3efa2646970667358221220eb26a84ac20362dd6b84fa32ad3521dc8ee347fbb4cbcba1bbf6b2bc253fbd9164736f6c634300080f0033",
    "linkReferences": {}
  },
  "methodIdentifiers": {
    "BUCKET_MANAGER_ROLE()": "550d9964",
    "DEFAULT_ADMIN_ROLE()": "a217fddf",
    "DOMAIN_SEPARATOR()": "3644e515",
    "FACILITATOR_MANAGER_ROLE()": "433bef44",
    "PERMIT_TYPEHASH()": "30adf81f",
    "addFacilitator(address,string,uint128)": "7fc24def",
    "allowance(address,address)": "dd62ed3e",
    "approve(address,uint256)": "095ea7b3",
    "balanceOf(address)": "70a08231",
    "burn(uint256)": "42966c68",
    "decimals()": "313ce567",
    "getFacilitator(address)": "d46ec0ed",
    "getFacilitatorBucket(address)": "aa02f94a",
    "getFacilitatorsList()": "1ec90f2e",
    "getRoleAdmin(bytes32)": "248a9ca3",
    "grantRole(bytes32,address)": "2f2ff15d",
    "hasRole(bytes32,address)": "91d14854",
    "mint(address,uint256)": "40c10f19",
    "name()": "06fdde03",
    "nonces(address)": "7ecebe00",
    "permit(address,address,uint256,uint256,uint8,bytes32,bytes32)": "d505accf",
    "removeFacilitator(address)": "a11812ba",
    "renounceRole(bytes32,address)": "36568abe",
    "revokeRole(bytes32,address)": "d547741f",
    "setFacilitatorBucketCapacity(address,uint128)": "af93df57",
    "supportsInterface(bytes4)": "01ffc9a7",
    "symbol()": "95d89b41",
    "totalSupply()": "18160ddd",
    "transfer(address,uint256)": "a9059cbb",
    "transferFrom(address,address,uint256)": "23b872dd"
  },
  "id": 1
}